:100000000C942A000C9487000C94B0000C94D90036
:100010000C9447000C9447000C9447000C94470044
:100020000C9447000C9447000C9447000C94470034
:100030000C9447000C9447000C9447000C94470024
:100040000C9447000C9447000C9447000C94470014
:100050000C94470011241FBECFE5D4E0DEBFCDBF16
:1000600010E0A0E6B0E0E0E6F6E002C005900D92F8
:10007000AA36B107D9F710E0AAE6B0E001C01D9298
:10008000A237B107E1F70E94DE020C942E030C9414
:100090000000813069F0813018F08230C1F410C066
:1000A0008BB780648BBF50936B0040936A000895B8
:1000B0008BB780688BBF50936D0040936C000895A0
:1000C0008BB780628BBF50936F0040936E00089592
:1000D000813069F0813018F08230C1F410C08BB7E4
:1000E0008F7B8BBF10926B0010926A0008958BB7C4
:1000F0008F778BBF10926D0010926C0008958BB7B4
:100100008F7D8BBF10926F0010926E0008951F922A
:100110000F920FB60F9211242F933F934F935F933B
:100120006F937F938F939F93AF93BF93EF93FF93BF
:10013000E0916A00F0916B00309709F00995FF910A
:10014000EF91BF91AF919F918F917F916F915F914F
:100150004F913F912F910F900FBE0F901F901895C8
:100160001F920F920FB60F9211242F933F934F932C
:100170005F936F937F938F939F93AF93BF93EF930F
:10018000FF93E0916C00F0916D00309709F00995B4
:10019000FF91EF91BF91AF919F918F917F916F915F
:1001A0005F914F913F912F910F900FBE0F901F9035
:1001B00018951F920F920FB60F9211242F933F9311
:1001C0004F935F936F937F938F939F93AF93BF935F
:1001D000EF93FF93E0916E00F0916F00309709F07C
:1001E0000995FF91EF91BF91AF919F918F917F9171
:1001F0006F915F914F913F912F910F900FBE0F9094
:100200001F901895813009F1813030F08230B1F1C2
:10021000833009F064C04BC0442359F02AB381E015
:1002200090E002C0880F991F6A95E2F7282B2ABB3D
:1002300008952AB381E090E002C0880F991F6A9563
:10024000E2F7809582238ABB0895442359F027B3AF
:1002500081E090E002C0880F991F6A95E2F7282B91
:1002600027BB089527B381E090E002C0880F991F53
:100270006A95E2F78095822387BB0895442359F05D
:1002800024B381E090E002C0880F991F6A95E2F7DD
:10029000282B24BB089524B381E090E002C0880F8E
:1002A000991F6A95E2F78095822384BB08954423C1
:1002B00059F021B381E090E002C0880F991F6A9540
:1002C000E2F7282B21BB089521B381E090E002C022
:1002D000880F991F6A95E2F78095822381BB089564
:1002E000813051F0813030F0823041F0833079F04C
:1002F00080E0089589B303C086B301C083B390E062
:1003000002C0959587956A95E2F78170089580B34C
:1003100090E002C0959587956A95E2F781700895FF
:10032000813009F1813030F08230B1F1833009F051
:1003300064C04BC0442359F02BB381E090E002C06D
:10034000880F991F6A95E2F7282B2BBB08952BB3D2
:1003500081E090E002C0880F991F6A95E2F78095CE
:1003600082238BBB0895442359F028B381E090E0A9
:1003700002C0880F991F6A95E2F7282B28BB0895C1
:1003800028B381E090E002C0880F991F6A95E2F7D8
:100390008095822388BB0895442359F025B381E0DA
:1003A00090E002C0880F991F6A95E2F7282B25BBC1
:1003B000089525B381E090E002C0880F991F6A95E7
:1003C000E2F78095822385BB0895442359F022B338
:1003D00081E090E002C0880F991F6A95E2F7282B10
:1003E00022BB089522B381E090E002C0880F991FDC
:1003F0006A95E2F78095822382BB0895813091F05F
:10040000813028F08230C9F0833061F521C02BB3F0
:1004100081E090E002C0880F991F6A95E2F72827D3
:100420002BBB089528B381E090E002C0880F991F8C
:100430006A95E2F7282728BB089525B381E090E06C
:1004400002C0880F991F6A95E2F7282725BB0895F7
:1004500022B381E090E002C0880F991F6A95E2F70D
:10046000282722BB0895813049F0813028F082305E
:1004700039F0833041F406C06ABB089567BB089524
:1004800064BB089561BB0895813051F0813030F034
:10049000823041F0833041F080E0089589B30895BF
:1004A00086B3089583B3089580B30895813049F0E9
:1004B000813028F0823039F0833041F406C06BBBC4
:1004C000089568BB089565BB089562BB0895BF9207
:1004D000CF92DF92EF92FF920F931F93CF93DF9310
:1004E000B82EF62EC42ED22E802F6AE00E94220350
:1004F000282F802F0E942203EE24092F10E0005A9B
:100500001F4FC22FD0E0C05ADF4F8F2D6C2D41E01E
:100510000E9490018F2D6D2D40E00E9490018B2D47
:10052000F80160810E94560280E090E00000019690
:10053000FFE180349F07D1F78F2D6C2D40E00E94A2
:1005400090018F2D6D2D41E00E9490018B2D6881CF
:100550000E94560280E090E0000001962FE1803476
:100560009207D1F7E39482E3E81679F6DF91CF9111
:100570001F910F91FF90EF90DF90CF90BF90089563
:10058000FF920F931F93162F042FF22E6FEF0E94EE
:100590003302812F602F41E00E940201812F6F2DD5
:1005A00041E00E9402011F910F91FF900895109267
:1005B0007100089581E08093710008950F9380E0A9
:1005C0006FEF0E94330282E066E041E00E94020188
:1005D00082E067E041E00E9402018FB780688FBF30
:1005E00080E060E047ED52E00E94490081E060E079
:1005F0004AED52E00E94490080917100882309F57C
:1006000062E046E027E0009170000E94670280E00F
:1006100090E0A0E0B0E000000196A11DB11D803087
:1006200023E5920727E0A20720E0B207A1F7809117
:1006300070008F5F809370008436F1F61092700026
:10064000DBCFFFCF991B79E004C0991F961708F004
:10065000961B881F7A95C9F780950895F894FFCF67
:0A0660007E0CB69EC6DAFA0EFEDE2E
:00000001FF
