:100000000C942A000C9487000C94B0000C94D90036
:100010000C9447000C9447000C9447000C94470044
:100020000C9447000C9447000C9447000C94080370
:100030000C9447000C9447000C9447000C94470024
:100040000C9447000C9447000C9447000C94470014
:100050000C94470011241FBECFE5D4E0DEBFCDBF16
:1000600010E0A0E6B0E0EAE3F7E002C005900D92F0
:10007000A037B107D9F710E0A0E7B0E001C01D92AA
:10008000AD37B107E1F70E945D030C949B030C941C
:100090000000813069F0813018F08230C1F410C066
:1000A0008BB780648BBF50937100409370000895AC
:1000B0008BB780688BBF5093730040937200089594
:1000C0008BB780628BBF5093750040937400089586
:1000D000813069F0813018F08230C1F410C08BB7E4
:1000E0008F7B8BBF109271001092700008958BB7B8
:1000F0008F778BBF109273001092720008958BB7A8
:100100008F7D8BBF109275001092740008951F921E
:100110000F920FB60F9211242F933F934F935F933B
:100120006F937F938F939F93AF93BF93EF93FF93BF
:10013000E0917000F0917100309709F00995FF91FE
:10014000EF91BF91AF919F918F917F916F915F914F
:100150004F913F912F910F900FBE0F901F901895C8
:100160001F920F920FB60F9211242F933F934F932C
:100170005F936F937F938F939F93AF93BF93EF930F
:10018000FF93E0917200F0917300309709F00995A8
:10019000FF91EF91BF91AF919F918F917F916F915F
:1001A0005F914F913F912F910F900FBE0F901F9035
:1001B00018951F920F920FB60F9211242F933F9311
:1001C0004F935F936F937F938F939F93AF93BF935F
:1001D000EF93FF93E0917400F0917500309709F070
:1001E0000995FF91EF91BF91AF919F918F917F9171
:1001F0006F915F914F913F912F910F900FBE0F9094
:100200001F901895813009F1813030F08230B1F1C2
:10021000833009F064C04BC0442359F02AB381E015
:1002200090E002C0880F991F6A95E2F7282B2ABB3D
:1002300008952AB381E090E002C0880F991F6A9563
:10024000E2F7809582238ABB0895442359F027B3AF
:1002500081E090E002C0880F991F6A95E2F7282B91
:1002600027BB089527B381E090E002C0880F991F53
:100270006A95E2F78095822387BB0895442359F05D
:1002800024B381E090E002C0880F991F6A95E2F7DD
:10029000282B24BB089524B381E090E002C0880F8E
:1002A000991F6A95E2F78095822384BB08954423C1
:1002B00059F021B381E090E002C0880F991F6A9540
:1002C000E2F7282B21BB089521B381E090E002C022
:1002D000880F991F6A95E2F78095822381BB089564
:1002E000813051F0813030F0823041F0833079F04C
:1002F00080E0089589B303C086B301C083B390E062
:1003000002C0959587956A95E2F78170089580B34C
:1003100090E002C0959587956A95E2F781700895FF
:10032000813009F1813030F08230B1F1833009F051
:1003300064C04BC0442359F02BB381E090E002C06D
:10034000880F991F6A95E2F7282B2BBB08952BB3D2
:1003500081E090E002C0880F991F6A95E2F78095CE
:1003600082238BBB0895442359F028B381E090E0A9
:1003700002C0880F991F6A95E2F7282B28BB0895C1
:1003800028B381E090E002C0880F991F6A95E2F7D8
:100390008095822388BB0895442359F025B381E0DA
:1003A00090E002C0880F991F6A95E2F7282B25BBC1
:1003B000089525B381E090E002C0880F991F6A95E7
:1003C000E2F78095822385BB0895442359F022B338
:1003D00081E090E002C0880F991F6A95E2F7282B10
:1003E00022BB089522B381E090E002C0880F991FDC
:1003F0006A95E2F78095822382BB0895813091F05F
:10040000813028F08230C9F0833061F521C02BB3F0
:1004100081E090E002C0880F991F6A95E2F72827D3
:100420002BBB089528B381E090E002C0880F991F8C
:100430006A95E2F7282728BB089525B381E090E06C
:1004400002C0880F991F6A95E2F7282725BB0895F7
:1004500022B381E090E002C0880F991F6A95E2F70D
:10046000282722BB0895813049F0813028F082305E
:1004700039F0833041F406C06ABB089567BB089524
:1004800064BB089561BB0895813051F0813030F034
:10049000823041F0833041F080E0089589B30895BF
:1004A00086B3089583B3089580B30895813049F0E9
:1004B000813028F0823039F0833041F406C06BBBC4
:1004C000089568BB089565BB089562BB0895CF92F7
:1004D000DF92EF92FF920F931F93082F10E020E618
:1004E000E22E20E0F22E000F111F000F111F6701F6
:1004F000C00ED11E82E060E0F60140810E949001B2
:1005000082E061E0F60141810E949001E00EF11E5F
:1005100082E062E0F70142810E94900182E063E0A4
:10052000F60143810E9490011F910F91FF90EF907F
:10053000DF90CF9008951F93892B71F013E0812FE6
:100540000E94670280E090E0000001962FE1803475
:100550009207D1F71150F3CF1F910895EF92FF92B8
:100560001F93CF93DF937C01C0E0D0E010C010E078
:10057000812F0E94670280E090E0000001962FE149
:1005800080349207D1F71F5F143091F72196CE1572
:10059000DF0568F3DF91CF911F91FF90EF900895F1
:1005A00082E060E041E00E94020182E061E041E01F
:1005B0000E94020182E062E041E00E94020182E0CA
:1005C00063E041E00E940201089581E0809376009B
:1005D000089581E080937700089583E060E041E032
:1005E0000E94900180E090E0A0E0B0E00000019661
:1005F000A11DB11D803024EF920721E0A20720E069
:10060000B207A1F783E060E040E00E949001089506
:100610001F920F920FB60F9211242F933F934F9377
:100620005F936F937F938F939F93AF93BF93EF935A
:10063000FF9380917B0090917C00019690937C00C9
:1006400080937B00089740F110927C0010927B0011
:1006500080917A00813029F481E090E00E94AE021E
:1006600008C080917A008230B9F481E090E00E9465
:100670009B02809178009091790001969093790087
:10068000809378008091780090917900C29720F053
:1006900010927A000E94ED02FF91EF91BF91AF910D
:1006A0009F918F917F916F915F914F913F912F918A
:1006B0000F900FBE0F901F90189583E060E041E00F
:1006C0000E9402010E94D00285E083BF89B7816049
:1006D00089BF80E062E045EE52E00E94490081E07F
:1006E00062E049EE52E00E9449008FB780688FBFF8
:1006F00021E092E080917600882361F080917A0079
:10070000882341F420937A001092790010927800A7
:100710001092760080917700882361F380917A00AF
:10072000882341F790937A00109279001092780014
:0A07300010927600DFCFF894FFCF9F
:10073A0001000100000101000001000101000001A7
:00000001FF
