:100000000C942A000C9447000C9447000C94470071
:100010000C9447000C944B0A0C94410A0C94470032
:100020000C9447000C94060A0C9447000C94CB09DE
:100030000C9447000C9447000C9447000C94470024
:100040000C9447000C9447000C9447000C94470014
:100050000C94470011241FBECFE5D4E0DEBFCDBF16
:1000600011E0A0E6B0E0EAE4F8E102C005900D92EC
:10007000AC36B107D9F711E0ACE6B1E001C01D9292
:10008000A238B107E1F70E94EB0B0C94230C0C94FF
:100090000000EF92FF920F931F937B018C0120E0F1
:1000A00030E040E05FE40E94190388238CF0C8012F
:1000B000B70120E030E040E05FE40E94C1010E940F
:1000C00049039B01AC01205030404040504806C0DD
:1000D000C801B7010E9449039B01AC01B901CA01E3
:1000E0001F910F91FF90EF900895A0E0B0E0EBE733
:1000F000F0E00C94EC0BDC012B01FA019C919230A6
:1001000008F439C1EB018881823008F433C194309E
:1001100069F4843009F02FC111969C91119789815F
:10012000981709F428C1A0E6B0E025C1843009F48D
:1001300021C18230A9F4923009F01DC19A01AD01AC
:1001400088E0EA010990AE01E90109929E0181501F
:10015000C1F7E201898111969C918923818308C1AD
:10016000923009F407C112962D903C901397EB0141
:100170008A819B811496AD90BD90CD90DC901797AD
:10018000EC80FD800E811F819101281B390BB90184
:1001900037FF04C066277727621B730B6032710537
:1001A0000CF061C0121613066CF537014801062EDB
:1001B00004C096948794779467940A94D2F721E0C8
:1001C00030E040E050E004C0220F331F441F551FB1
:1001D0006A95D2F721503040404050402E213F21B7
:1001E00040235123211531054105510521F021E01E
:1001F00030E040E050E079018A01E628F72808293C
:1002000019293CC0232BD1F1260E371E350146019A
:10021000062E04C096948794779467940A94D2F734
:1002200021E030E040E050E004C0220F331F441FC3
:10023000551F6A95D2F721503040404050402A2146
:100240003B214C215D21211531054105510521F04E
:1002500021E030E040E050E059016A01A628B728CB
:10026000C828D9280BC0821593052CF01C01AA249C
:10027000BB24650103C0EE24FF24870111969C91E5
:10028000D20111968C91981709F445C0992339F041
:10029000A80197012A193B094C095D0906C0A6016E
:1002A00095012E193F09400B510B57FD08C01182D3
:1002B0003382228224833583468357831DC081E0A5
:1002C00081833382228288279927DC01821B930B4A
:1002D000A40BB50B84839583A683B7830DC0220F2F
:1002E000331F441F551F24833583468357838281E0
:1002F000938101979383828324813581468157813D
:10030000DA01C9010197A109B1098F5F9F4FAF4F72
:10031000BF4328F30BC0918333822282EA0CFB1C7B
:100320000C1D1D1DE482F5820683178383E0808304
:10033000248135814681578157FF1AC0C901AA27F8
:1003400097FDA095BA2F81709070A070B0705695EF
:10035000479537952795822B932BA42BB52B848318
:100360009583A683B7838281938101969383828349
:10037000DF0101C0D201CD01CDB7DEB7E2E10C94BF
:10038000080CA0E2B0E0E7ECF1E00C94F80B698314
:100390007A838B839C832D833E834F835887E9E048
:1003A000EE2EF12CEC0EFD1ECE010196B7010E943F
:1003B0003A058E010F5E1F4FCE010596B8010E94CF
:1003C0003A058A8991E089278A8BC701B801AE0175
:1003D000475E5F4F0E9475000E946504A096E6E0AC
:1003E0000C94140CA0E2B0E0E8EFF1E00C94F80BF0
:1003F00069837A838B839C832D833E834F835887C5
:10040000F9E0EF2EF12CEC0EFD1ECE010196B701A6
:100410000E943A058E010F5E1F4FCE010596B8016E
:100420000E943A05C701B801AE01475E5F4F0E94C6
:1004300075000E946504A096E6E00C94140CA0E2FE
:10044000B0E0E5E2F2E00C94EC0B69837A838B83F5
:100450009C832D833E834F835887CE010196BE0136
:10046000675F7F4F0E943A05CE010596BE016F5E21
:100470007F4F0E943A059985923088F089898230B1
:10048000C8F0943019F4823051F404C0843029F457
:10049000923081F480E690E0C6C0923049F420E0CA
:1004A0009A858A89981321E02A87CE010996BBC0D4
:1004B000823049F420E09A858A89981321E02A8BBA
:1004C000CE014196B0C02D843E844F8458886D88FB
:1004D0007E888F88988CEE24FF248701AA24BB2471
:1004E000650140E050E060E070E0E0E0F0E0C10174
:1004F00081709070892BE9F0E60CF71C081D191D1E
:100500009A01AB012A0D3B1D4C1D5D1D80E090E062
:10051000A0E0B0E0E614F7040805190520F481E036
:1005200090E0A0E0B0E0BA01A901480F591F6A1F8E
:100530007B1FAA0CBB1CCC1CDD1C97FE08C081E0F5
:1005400090E0A0E0B0E0A82AB92ACA2ADB2A3196B6
:10055000E032F10549F0660C771C881C991C569412
:10056000479437942794C3CFFA85EA892B893C892D
:100570008B859C85280F391F2E5F3F4F17C0CA01FE
:1005800081709070892B61F016950795F794E79428
:1005900080E090E0A0E0B0E8E82AF92A0A2B1B2BC3
:1005A00076956795579547952F5F3F4F77FDE7CF36
:1005B0000CC0440F551F661F771F17FD4160EE0CDE
:1005C000FF1C001F111F21503040403090E05907A0
:1005D00090E0690790E4790760F32B8F3C8FDB0193
:1005E000CA018F779070A070B07080349105A1051A
:1005F000B10561F447FD0AC0E114F10401051105DC
:1006000029F0405C5F4F6F4F7F4F40781A8EFE1786
:1006100011F081E08A8F4D8F5E8F6F8F78A383E01A
:10062000898FCE0149960E946504A096E2E10C9460
:10063000080CA8E1B0E0EFE1F3E00C94F80B69835B
:100640007A838B839C832D833E834F83588789E0F5
:10065000E82EF12CEC0EFD1ECE010196B7010E9492
:100660003A058E010F5E1F4FCE010596B8010E941C
:100670003A058985823040F08989823028F0C701A7
:10068000B8010E94B20501C08FEF6896E6E00C94B5
:10069000140CACE0B0E0EFE4F3E00C94FC0B6983E5
:1006A0007A838B839C83CE010196BE016B5F7F4F63
:1006B0000E943A058D81823061F1823050F18430A0
:1006C00021F48E81882351F12EC02F81388537FD8A
:1006D00020C06E812F3131051CF06623F9F023C054
:1006E0008EE190E0821B930B29853A854B855C85D2
:1006F00004C056954795379527958A95D2F7662376
:10070000B1F050954095309521953F4F4F4F5F4F39
:100710000EC020E030E040E050E009C02FEF3FEF96
:100720004FEF5FE704C020E030E040E050E8B9015F
:10073000CA012C96E2E00C94180CA8E0B0E0E3EAC1
:10074000F3E00C94F40B7B018C01611571058105BC
:10075000910519F482E0898360C083E089838EE18A
:10076000C82ED12CDC82CB82ED82FE820F831887CB
:10077000C801B7010E941604FC013197F7FF3BC086
:10078000222733272E1B3F0B57016801022E04C07E
:10079000D694C794B794A7940A94D2F740E050E057
:1007A00060E070E081E090E0A0E0B0E004C0880F7D
:1007B000991FAA1FBB1F2A95D2F70197A109B1095A
:1007C0008E219F21A023B1230097A105B10521F01F
:1007D00041E050E060E070E04A295B296C297D2906
:1007E0004D835E836F8378878EE190E08E1B9F0B35
:1007F0009C838B8312C0309781F00E2E04C0EE0CC8
:10080000FF1C001F111F0A94D2F7ED82FE820F8396
:100810001887CE1ADF0ADC82CB821A82CE010196BB
:100820000E9465042896EAE00C94100CEF92FF9267
:100830000F931F937B018C0180E0E81680E0F8069F
:1008400081E0080780E0180788F48FEFE816F104CC
:100850000105110531F028F088E090E0A0E0B0E05B
:1008600017C080E090E0A0E0B0E012C080E0E816A1
:1008700080E0F80680E0080781E0180728F088E1AA
:1008800090E0A0E0B0E004C080E190E0A0E0B0E043
:1008900020E230E040E050E0281B390B4A0B5B0BB4
:1008A00004C016950795F794E7948A95D2F7F70157
:1008B000E859FF4F8081281B310941095109C901BD
:1008C0001F910F91FF90EF900895DF92EF92FF92AA
:1008D0000F931F93FC01E480F58006811781D1807E
:1008E0008081823048F480E090E0A0E1B0E0E82A26
:1008F000F92A0A2B1B2BA5C0843009F49FC0823033
:1009000021F4EE24FF24870105C0E114F104010560
:10091000110519F4E0E0F0E096C0628173819FEF69
:10092000623879070CF05BC022E83FEF261B370BDB
:100930002A3131052CF020E030E040E050E02AC0C0
:10094000B801A701022E04C0769567955795479583
:100950000A94D2F781E090E0A0E0B0E004C0880FF4
:10096000991FAA1FBB1F2A95D2F70197A109B109A8
:100970008E219F21A023B1230097A105B10521F06D
:1009800081E090E0A0E0B0E09A01AB01282B392B88
:100990004A2B5B2BDA01C9018F779070A070B07081
:1009A00080349105A105B10539F427FF09C0205C09
:1009B0003F4F4F4F5F4F04C0215C3F4F4F4F5F4F42
:1009C000E0E0F0E02030A0E03A07A0E04A07A0E431
:1009D0005A0710F0E1E0F0E079018A0127C06038A1
:1009E000710564F5FB01E158FF4FD801C7018F770E
:1009F0009070A070B07080349105A105B10539F4F4
:100A0000E7FE0DC080E490E0A0E0B0E004C08FE31A
:100A100090E0A0E0B0E0E80EF91E0A1F1B1F17FFD0
:100A200005C016950795F794E794319687E01695DB
:100A30000795F794E7948A95D1F705C0EE24FF2433
:100A40008701EFEFF0E06E2F679566276795902F8F
:100A50009F77D794DD24D7948E2F8695492F462BE8
:100A6000582F5D29B701CA011F910F91FF90EF9098
:100A7000DF900895FC01DB01408151812281622FCA
:100A80006F7770E0221F2227221F9381892F880F02
:100A9000822B282F30E0991F9927991F11969C933C
:100AA000119721153105A9F541155105610571050C
:100AB00011F482E037C082E89FEF13969C938E93E7
:100AC00012979A01AB0167E0220F331F441F551F95
:100AD0006A95D1F783E08C930DC0220F331F441F1A
:100AE000551F12968D919C911397019713969C9385
:100AF0008E931297203080E0380780E0480780E42A
:100B0000580758F314962D933D934D935C93179784
:100B100008952F3F310579F441155105610571059F
:100B200019F484E08C93089564FF03C081E08C93F2
:100B300012C01C9210C02F57304013963C932E9336
:100B4000129783E08C9387E0440F551F661F771F31
:100B50008A95D1F7706414964D935D936D937C9351
:100B6000179708951F93DC01FB019C91923008F4C4
:100B700047C08081823008F443C0943051F411960C
:100B80001C91843099F58181682F70E0611B710997
:100B90003FC0843021F0923031F48230B9F181814C
:100BA000882389F12DC011961C9111978230F1F0A4
:100BB00081811817D9F412962D913C911397828157
:100BC00093818217930794F028173907BCF0149685
:100BD0008D919D910D90BC91A02D248135814681F0
:100BE0005781281739074A075B0718F4112341F08A
:100BF0000AC082179307A407B50740F4112319F020
:100C000061E070E005C06FEF7FEF02C060E070E070
:100C1000CB011F910895882319F0813051F405C04C
:100C200013BE89B78C7F89BF089515BC89B78F73B0
:100C300089BF0895CF92DF92FF920F931F93CF93B6
:100C4000DF93F82EEB016A0182E08F1508F4AFC044
:100C50006115710509F4ABC00F2D10E0D801A8593A
:100C6000BE4F8C91813009F0A2C082E0F81609F4E1
:100C70009CC0F80133E0EE0FFF1F3A95E1F7E2590F
:100C8000FE4F118210821782168282E08C9380E0E0
:100C900090E00E949D0320E030E04AE754E40E9487
:100CA0001F0220E030E040E05CE30E941F020E944F
:100CB0004900D80123E0AA0FBB1F2A95E1F7A059EC
:100CC000BE4F28EE33E0C29FF001C39FF00DD29FCC
:100CD000F00D11249B01AC01689416F8220F331F0C
:100CE000441F551F1694D1F7E21BF30BED93FC93B1
:100CF000F801A3E0EE0FFF1FAA95E1F7EE58FE4FB3
:100D0000AB01507020E031E0241B350B3183208390
:100D100053E0CC0FDD1F5A95E1F7CE58DE4F288106
:100D20003981672F782F892F9927232B11F06F5F37
:100D30007F4FF80133E0EE0FFF1F3A95E1F7E259DC
:100D4000FE4F71836083D782C682F801EE0FFF1FCA
:100D5000FF20B1F4EE0FFF1FEE0FFF1FEE58FE4F06
:100D6000808182BF89B78C7F89BF89B7816089BF45
:100D70008FB780688FBF13BE83B7856083BF15C0F0
:100D8000EE0FFF1FEE0FFF1FEE58FE4F808184BD58
:100D900089B78F7389BF89B7806489BF8FB780682F
:100DA0008FBF15BC85B5856085BD81E001C080E041
:100DB000DF91CF911F910F91FF90DF90CF90089519
:100DC0001F93CF93DF93182F833008F055C0611520
:100DD000710509F451C0A82FB0E0ED01C859DE4FEC
:100DE0008881813009F048C0123009F446C0FD0105
:100DF00093E0EE0FFF1F9A95E1F7E059FE4F118245
:100E0000108283E0888383E0AA0FBB1F8A95E1F7F5
:100E1000FD01EE58FE4F20E031E0261B3109318301
:100E20002083FD01E259FE4F872F99270196918378
:100E3000808357834683112379F422BF89B78C7F3F
:100E400089BF89B7816089BF8FB780688FBF13BEA4
:100E500083B7826083BF0EC024BD89B78F7389BFFB
:100E600089B7806489BF8FB780688FBF15BC85B58F
:100E7000826085BD81E001C080E0DF91CF911F914C
:100E800008951F93182F282F30E0D90153E0AA0F9F
:100E9000BB1F5A95E1F7A259BE4F8D919C911197B6
:100EA000019711969C938E93892B21F5F90143E0CC
:100EB000EE0FFF1F4A95E1F7E059FE4F6081718107
:100EC000F901E859FE4F6115710559F481E08083FD
:100ED0001696ED91FC9117970995812F0E940B06AC
:100EE00009C081E0808316964D915C911797812F00
:100EF0000E94E0061F910895CF92DF92FF920F9318
:100F00001F93CF93DF93F82E8B016A0182E08F1538
:100F100008F47FC06115710509F47BC0CF2DD0E0C6
:100F2000FE01E859FE4F8081813009F072C082E0F5
:100F3000F81609F46EC086E0808380E090E00E949D
:100F40009D0320E030E04AE754E40E941F0220E0C5
:100F500030E040E05CE30E941F020E944900DE0195
:100F600023E0AA0FBB1F2A95E1F7A059BE4F28EE38
:100F700033E0029FF001039FF00D129FF00D11244A
:100F80009B01AC0107E0220F331F441F551F0A9538
:100F9000D1F7E21BF30BED93FC9313E0CC0FDD1FB5
:100FA0001A95E1F7FE01EE58FE4FAB01507020E0BC
:100FB00031E0241B350B31832083FE01E259FE4FC3
:100FC000672F782F892F99276F5F7F4F71836083F9
:100FD000D782C682FF2079F422BF89B78C7F89BF70
:100FE00089B7816089BF8FB780688FBF13BE83B711
:100FF000856083BF0EC024BD89B78F7389BF89B751
:10100000806489BF8FB780688FBF15BC85B5856048
:1010100085BD80E0DF91CF911F910F91FF90DF9010
:10102000CF900895CF93DF93982F833080F5C82F0A
:10103000D0E09E0128593E4FF9018081863039F574
:1010400063E0CC0FDD1F6A95E1F7DE01A259BE4FC8
:1010500011961C921E92FE01E059FE4F11821082E1
:10106000CE58DE4F1982188217961C921E92169740
:10107000992311F413BE03C0923021F015BC81E016
:10108000F9018083892F0E940B0681E001C080E076
:10109000DF91CF910895CF93DF9320916C01309130
:1010A0006D012F5F3F4F30936D0120936C01C82F6E
:1010B000D0E0FE01B3E0EE0FFF1FBA95E1F7E25971
:1010C000FE4F4081518124173507F9F4882379F4C4
:1010D00013BEA3E0CC0FDD1FAA95E1F7C059DE4F88
:1010E0008881819582BF83B7826083BF3CC0823094
:1010F000D1F115BCF3E0CC0FDD1FFA95E1F7C05933
:10110000DE4F8881819584BD2EC04217530758F564
:10111000882391F413BE0680F781E02D0995E3E062
:10112000CC0FDD1FEA95E1F7CE58DE4F888182BFF4
:1011300083B7856083BF13C08230A9F015BC0680D9
:10114000F781E02D099573E0CC0FDD1F7A95E1F76B
:10115000CE58DE4F888184BD85B5876085BD1092ED
:101160006D0110926C01DF91CF910895CF93DF93C1
:10117000982F633008F06DC0C82FD0E09E01285929
:101180003E4FF9018081813009F063C0DE0173E0D8
:10119000AA0FBB1F7A95E1F7A259BE4F11961C9278
:1011A0001E92FE0183E0EE0FFF1F8A95E1F7E059E2
:1011B000FE4F11821082FE0173E0EE0FFF1F7A9541
:1011C000E1F7EE58FE4F1182108217961C921E9284
:1011D000169784E0F90180839923A1F413BE12BE0F
:1011E0008FB780688FBF633059F0643028F4613066
:1011F00039F0623009F504C0643011F06530E1F473
:1012000063BF1AC0923019F16430A9F0653038F428
:10121000623089F0633050F4613071F40CC0663094
:1012200051F0663028F0673039F405C083E001C022
:1012300085E085BD01C065BDCC0FDD1FC258DE4F06
:1012400059834883FA01108211821282138281E04D
:1012500001C080E0DF91CF910895CF93DF93582FA5
:10126000833008F05FC090E09C0128593E4FF9019F
:101270004081443009F056C0FC0173E0EE0FFF1FBF
:101280007A95E1F7E259FE4F11821082DC0163E0AA
:10129000AA0FBB1F6A95E1F7A059BE4F1D921C9281
:1012A000EC01CC0FDD1FDE01AA0FBB1FAA0FBB1F75
:1012B000AE58BE4F1D921C92178216825523B1F470
:1012C00013BEF9014083C258DE4FE881F98122B78D
:1012D00080819181A281B381820F911DA11DB11DD9
:1012E00080839183A283B38312BE17C05230A9F0CA
:1012F00015BCF9014083C258DE4FE881F98124B55D
:1013000080819181A281B381820F911DA11DB11DA8
:1013100080839183A283B38314BC852F0E940B0624
:1013200081E001C080E0DF91CF910895089583307E
:1013300070F4683060F490E0E82FF0E0E859FE4F78
:101340008081813009F091E081E0982701C090E030
:10135000892F089580E00895982F8230A0F4E82F17
:10136000F0E0E859FE4F8081853069F481E08083A8
:10137000992321F413BE12BE1CBE089515BC14BCE3
:1013800013BC81E0089580E00895089580E00895F9
:1013900080E0089508951F920F920FB60F921124C6
:1013A0002F933F934F935F936F937F938F939F936D
:1013B000AF93BF93EF93FF9380916801823071F0F8
:1013C000833018F4813089F405C0833039F08630D9
:1013D00061F408C080E00E940B0607C080E00E9414
:1013E000410703C080E00E944B08FF91EF91BF913D
:1013F000AF919F918F917F916F915F914F913F91AD
:101400002F910F900FBE0F901F9018951F920F9263
:101410000FB60F9211242F933F934F935F936F93C7
:101420007F938F939F93AF93BF93EF93FF9380919D
:101430006A01823071F0833018F4813089F405C07C
:10144000833039F0863061F408C082E00E940B06D8
:1014500007C082E00E94410703C082E00E944B085F
:10146000FF91EF91BF91AF919F918F917F916F917C
:101470005F914F913F912F910F900FBE0F901F9052
:1014800018951F920F920FB60F9211240F900FBE56
:101490000F901F9018951F920F920FB60F92112464
:1014A0002F933F934F935F936F937F938F939F936C
:1014B000AF93BF93EF93FF9380916901823071F0F6
:1014C000833018F4813089F405C0833039F08630D8
:1014D00061F408C081E00E940B0607C081E00E9411
:1014E000410703C081E00E944B08FF91EF91BF913B
:1014F000AF919F918F917F916F915F914F913F91AC
:101500002F910F900FBE0F901F901895813009F109
:10151000813030F08230B1F1833009F064C04BC0CB
:10152000442359F02AB381E090E002C0880F991F4C
:101530006A95E2F7282B2ABB08952AB381E090E050
:1015400002C0880F991F6A95E2F7809582238ABBB3
:101550000895442359F027B381E090E002C0880F3A
:10156000991F6A95E2F7282B27BB089527B381E0DE
:1015700090E002C0880F991F6A95E2F78095822358
:1015800087BB0895442359F024B381E090E002C062
:10159000880F991F6A95E2F7282B24BB089524B37E
:1015A00081E090E002C0880F991F6A95E2F780956C
:1015B000822384BB0895442359F021B381E090E055
:1015C00002C0880F991F6A95E2F7282B21BB089566
:1015D00021B381E090E002C0880F991F6A95E2F77D
:1015E0008095822381BB0895813051F0813030F0A5
:1015F000823041F0833079F080E0089589B303C0F0
:1016000086B301C083B390E002C0959587956A9533
:10161000E2F78170089580B390E002C095958795B8
:101620006A95E2F781700895813009F1813030F0D8
:101630008230B1F1833009F064C04BC0442359F0CB
:101640002BB381E090E002C0880F991F6A95E2F702
:10165000282B2BBB08952BB381E090E002C0880FAC
:10166000991F6A95E2F7809582238BBB08954423E6
:1016700059F028B381E090E002C0880F991F6A9565
:10168000E2F7282B28BB089528B381E090E002C040
:10169000880F991F6A95E2F78095822388BB089589
:1016A000442359F025B381E090E002C0880F991FD0
:1016B0006A95E2F7282B25BB089525B381E090E0D9
:1016C00002C0880F991F6A95E2F78095822385BB37
:1016D0000895442359F022B381E090E002C0880FBE
:1016E000991F6A95E2F7282B22BB089522B381E067
:1016F00090E002C0880F991F6A95E2F780958223D7
:1017000082BB0895813091F0813028F08230C9F099
:10171000833061F521C02BB381E090E002C0880FD7
:10172000991F6A95E2F728272BBB089528B381E01B
:1017300090E002C0880F991F6A95E2F7282728BB1E
:10174000089525B381E090E002C0880F991F6A9543
:10175000E2F7282725BB089522B381E090E002C07C
:10176000880F991F6A95E2F7282722BB08958130D8
:1017700049F0813028F0823039F0833041F406C0DE
:101780006ABB089567BB089564BB089561BB089563
:10179000813051F0813030F0823041F0833041F0BF
:1017A00080E0089589B3089586B3089583B30895BA
:1017B00080B30895813049F0813028F0823039F0CB
:1017C000833041F406C06BBB089568BB089565BBC8
:1017D000089562BB0895FFCF2F923F924F925F9280
:1017E0006F927F928F929F92AF92BF92CF92DF9231
:1017F000EF92FF920F931F93CF93DF93CDB7DEB796
:10180000CA1BDB0B0FB6F894DEBF0FBECDBF099429
:101810002A88398848885F846E847D848C849B8480
:10182000AA84B984C884DF80EE80FD800C811B818E
:10183000AA81B981CE0FD11D0FB6F894DEBF0FBEBD
:0A184000CDBFED010895F894FFCF2D
:10184A00000000000000000000010202030303037D
:10185A000404040404040404050505050505050536
:10186A000505050505050505060606060606060616
:10187A0006060606060606060606060606060606FE
:10188A0006060606060606060707070707070707E6
:10189A0007070707070707070707070707070707CE
:1018AA0007070707070707070707070707070707BE
:1018BA0007070707070707070707070707070707AE
:1018CA000707070707070707080808080808080896
:1018DA00080808080808080808080808080808087E
:1018EA00080808080808080808080808080808086E
:1018FA00080808080808080808080808080808085E
:10190A00080808080808080808080808080808084D
:10191A00080808080808080808080808080808083D
:10192A00080808080808080808080808080808082D
:10193A00080808080808080808080808080808081D
:0C194A000808080808080808010101004E
:00000001FF
