:100000000C942A000C9447000C9447000C94470071
:100010000C9447000C9447000C9447000C94470044
:100020000C9447000C9447000C9447000C94470034
:100030000C9447000C9447000C9447000C94470024
:100040000C9447000C9447000C9447000C94470014
:100050000C94470011241FBECFE5D4E0DEBFCDBF16
:1000600010E0A0E6B0E0E2EBF4E002C005900D92F3
:10007000AA36B107D9F710E0AAE6B0E001C01D9298
:10008000AC36B107E1F70E941E020C9457020C94A3
:100090000000813009F1813030F08230B1F18330DD
:1000A00009F064C04BC0442359F02AB381E090E0CA
:1000B00002C0880F991F6A95E2F7282B2ABB089582
:1000C0002AB381E090E002C0880F991F6A95E2F799
:1000D000809582238ABB0895442359F027B381E099
:1000E00090E002C0880F991F6A95E2F7282B27BB82
:1000F000089527B381E090E002C0880F991F6A95A8
:10010000E2F78095822387BB0895442359F024B3F6
:1001100081E090E002C0880F991F6A95E2F7282BD2
:1001200024BB089524B381E090E002C0880F991F9A
:100130006A95E2F78095822384BB0895442359F0A1
:1001400021B381E090E002C0880F991F6A95E2F721
:10015000282B21BB089521B381E090E002C0880FD5
:10016000991F6A95E2F78095822381BB08958130BB
:1001700051F0813030F0823041F0833079F080E00E
:10018000089589B303C086B301C083B390E002C071
:10019000959587956A95E2F78170089580B390E010
:1001A00002C0959587956A95E2F781700895813030
:1001B00009F1813030F08230B1F1833009F064C050
:1001C0004BC0442359F02BB381E090E002C0880F6C
:1001D000991F6A95E2F7282B2BBB08952BB381E07A
:1001E00090E002C0880F991F6A95E2F780958223FC
:1001F0008BBB0895442359F028B381E090E002C0FE
:10020000880F991F6A95E2F7282B28BB089528B319
:1002100081E090E002C0880F991F6A95E2F780950F
:10022000822388BB0895442359F025B381E090E0F0
:1002300002C0880F991F6A95E2F7282B25BB089505
:1002400025B381E090E002C0880F991F6A95E2F71C
:100250008095822385BB0895442359F022B381E021
:1002600090E002C0880F991F6A95E2F7282B22BB05
:10027000089522B381E090E002C0880F991F6A952B
:10028000E2F78095822382BB0895813091F081301E
:1002900028F08230C9F0833061F521C02BB381E0B2
:1002A00090E002C0880F991F6A95E2F728272BBBC0
:1002B000089528B381E090E002C0880F991F6A95E5
:1002C000E2F7282728BB089525B381E090E002C01B
:1002D000880F991F6A95E2F7282725BB089522B356
:1002E00081E090E002C0880F991F6A95E2F7282705
:1002F00022BB0895813049F0813028F0823039F0F6
:10030000833041F406C06ABB089567BB089564BB9F
:10031000089561BB0895813051F0813030F0823012
:1003200041F0833041F080E0089589B3089586B3A9
:10033000089583B3089580B30895813049F08130E2
:1003400028F0823039F0833041F406C06BBB089549
:1003500068BB089565BB089562BB0895BF92CF92B4
:10036000DF92EF92FF920F931F93CF93DF93B82EFC
:10037000F62EC42ED22E802F6AE00E944B02282F28
:10038000802F0E944B02EE24092F10E0005A1F4FCD
:10039000C22FD0E0C05ADF4F8F2D6C2D41E00E945C
:1003A000D7008F2D6D2D40E00E94D7008B2DF801D6
:1003B00060810E949D0180E090E000000196FFE1D5
:1003C00080349F07D1F78F2D6C2D40E00E94D7001D
:1003D0008F2D6D2D41E00E94D7008B2D68810E94EA
:1003E0009D0180E090E0000001962FE180349207AB
:1003F000D1F7E39482E3E81679F6DF91CF911F916C
:100400000F91FF90EF90DF90CF90BF900895FF92F3
:100410000F931F93162F042FF22E6FEF0E947A0175
:10042000812F602F41E00E944900812F6F2D41E014
:100430000E9449001F910F91FF9008950F9380E053
:1004400062E046E027E00E94070280916B0088236B
:1004500009F562E046E027E000916A000E94AE01E3
:1004600080E090E0A0E0B0E000000196A11DB11D89
:10047000803023E5920727E0A20720E0B207A1F72A
:1004800080916A008F5F80936A008436F1F6109243
:100490006A00DBCFFFCF991B79E004C0991F961744
:1004A00008F0961B881F7A95C9F780950895F894EF
:0204B000FFCF7C
:0A04B2007E0CB69EC6DAFA0EFEDEDE
:00000001FF
