:100000000C942A000C941F020C9448020C94470094
:100010000C94B8010C948F010C9447000C94660169
:100020000C943D010C9414010C94EB000C94C20050
:100030000C9447000C9447000C9447000C94470024
:100040000C9447000C9447000C9447000C94470014
:100050000C94470011241FBECFE5D4E0DEBFCDBF16
:1000600010E0A0E6B0E0E2EAF9E002C005900D92EF
:10007000A636B107D9F710E0A6E6B0E001C01D92A0
:10008000AC37B107E1F70E9458040C94CF040C94EC
:100090000000FC013081832F807C39F513BE23B72B
:1000A0009081892F8695869586958770282B206468
:1000B000892F8170880F880F880F822B990F990FD5
:1000C000990F9073982B93BF0180F281E02D80816E
:1000D00082BF81818CBF367031F489B7836089BF5C
:1000E0008FB780688FBF80E00895803411F481E07D
:1000F0000895803811F083E0089515BC25B58081FE
:10010000982F9695969596959770922B282F2170FB
:10011000220F220F220F292B880F880F880F807340
:10012000822B85BD0180F281E02D808184BD81819B
:1001300083BD367011F082E0089589B7806C89BF65
:100140008FB780688FBF82E00895882329F483B732
:10015000887F83BF80E00895813041F0823011F0C4
:1001600083E0089585B5887F85BD82E00895873056
:1001700040F4E82FF0E0EE0FFF1FEA59FF4F7183C4
:10018000608308951F920F920FB60F9211242F9340
:100190003F934F935F936F937F938F939F93AF930F
:1001A000BF93EF93FF93E0916600F0916700309763
:1001B00009F00995FF91EF91BF91AF919F918F91B8
:1001C0007F916F915F914F913F912F910F900FBE53
:1001D0000F901F9018951F920F920FB60F92112437
:1001E0002F933F934F935F936F937F938F939F933F
:1001F000AF93BF93EF93FF93E0916800F091690094
:10020000309709F00995FF91EF91BF91AF919F91C0
:100210008F917F916F915F914F913F912F910F90AF
:100220000FBE0F901F9018951F920F920FB60F924E
:1002300011242F933F934F935F936F937F938F93EB
:100240009F93AF93BF93EF93FF93E0916A00F09178
:100250006B00309709F00995FF91EF91BF91AF9135
:100260009F918F917F916F915F914F913F912F91CE
:100270000F900FBE0F901F9018951F920F920FB600
:100280000F9211242F933F934F935F936F937F931C
:100290008F939F93AF93BF93EF93FF93E0916C0085
:1002A000F0916D00309709F00995FF91EF91BF91A2
:1002B000AF919F918F917F916F915F914F913F91FE
:1002C0002F910F900FBE0F901F9018951F920F92B5
:1002D0000FB60F9211242F933F934F935F936F9319
:1002E0007F938F939F93AF93BF93EF93FF93E0918F
:1002F0006E00F0916F00309709F00995FF91EF9132
:10030000BF91AF919F918F917F916F915F914F912D
:100310003F912F910F900FBE0F901F9018951F9235
:100320000F920FB60F9211242F933F934F935F9329
:100330006F937F938F939F93AF93BF93EF93FF93AD
:10034000E0917000F0917100309709F00995FF91EC
:10035000EF91BF91AF919F918F917F916F915F913D
:100360004F913F912F910F900FBE0F901F901895B6
:100370001F920F920FB60F9211242F933F934F931A
:100380005F936F937F938F939F93AF93BF93EF93FD
:10039000FF93E0917200F0917300309709F0099596
:1003A000FF91EF91BF91AF919F918F917F916F914D
:1003B0005F914F913F912F910F900FBE0F901F9023
:1003C0001895813069F0813018F08230C1F410C086
:1003D0008BB780648BBF5093750040937400089571
:1003E0008BB780688BBF5093770040937600089559
:1003F0008BB780628BBF509379004093780008954B
:10040000813069F0813018F08230C1F410C08BB7B0
:100410008F7B8BBF109275001092740008958BB77C
:100420008F778BBF109277001092760008958BB76C
:100430008F7D8BBF109279001092780008951F92E3
:100440000F920FB60F9211242F933F934F935F9308
:100450006F937F938F939F93AF93BF93EF93FF938C
:10046000E0917400F0917500309709F00995FF91C3
:10047000EF91BF91AF919F918F917F916F915F911C
:100480004F913F912F910F900FBE0F901F90189595
:100490001F920F920FB60F9211242F933F934F93F9
:1004A0005F936F937F938F939F93AF93BF93EF93DC
:1004B000FF93E0917600F0917700309709F009956D
:1004C000FF91EF91BF91AF919F918F917F916F912C
:1004D0005F914F913F912F910F900FBE0F901F9002
:1004E0001895813009F1813030F08230B1F18330DC
:1004F00009F064C04BC0442359F02AB381E090E076
:1005000002C0880F991F6A95E2F7282B2ABB08952D
:100510002AB381E090E002C0880F991F6A95E2F744
:10052000809582238ABB0895442359F027B381E044
:1005300090E002C0880F991F6A95E2F7282B27BB2D
:10054000089527B381E090E002C0880F991F6A9553
:10055000E2F78095822387BB0895442359F024B3A2
:1005600081E090E002C0880F991F6A95E2F7282B7E
:1005700024BB089524B381E090E002C0880F991F46
:100580006A95E2F78095822384BB0895442359F04D
:1005900021B381E090E002C0880F991F6A95E2F7CD
:1005A000282B21BB089521B381E090E002C0880F81
:1005B000991F6A95E2F78095822381BB0895813067
:1005C00051F0813030F0823041F0833079F080E0BA
:1005D000089589B303C086B301C083B390E002C01D
:1005E000959587956A95E2F78170089580B390E0BC
:1005F00002C0959587956A95E2F7817008958130DC
:1006000009F1813030F08230B1F1833009F064C0FB
:100610004BC0442359F02BB381E090E002C0880F17
:10062000991F6A95E2F7282B2BBB08952BB381E025
:1006300090E002C0880F991F6A95E2F780958223A7
:100640008BBB0895442359F028B381E090E002C0A9
:10065000880F991F6A95E2F7282B28BB089528B3C5
:1006600081E090E002C0880F991F6A95E2F78095BB
:10067000822388BB0895442359F025B381E090E09C
:1006800002C0880F991F6A95E2F7282B25BB0895B1
:1006900025B381E090E002C0880F991F6A95E2F7C8
:1006A0008095822385BB0895442359F022B381E0CD
:1006B00090E002C0880F991F6A95E2F7282B22BBB1
:1006C000089522B381E090E002C0880F991F6A95D7
:1006D000E2F78095822382BB0895813091F08130CA
:1006E00028F08230C9F0833061F521C02BB381E05E
:1006F00090E002C0880F991F6A95E2F728272BBB6C
:10070000089528B381E090E002C0880F991F6A9590
:10071000E2F7282728BB089525B381E090E002C0C6
:10072000880F991F6A95E2F7282725BB089522B301
:1007300081E090E002C0880F991F6A95E2F72827B0
:1007400022BB0895813049F0813028F0823039F0A1
:10075000833041F406C06ABB089567BB089564BB4B
:10076000089561BB0895813051F0813030F08230BE
:1007700041F0833041F080E0089589B3089586B355
:10078000089583B3089580B30895813049F081308E
:1007900028F0823039F0833041F406C06BBB0895F5
:1007A00068BB089565BB089562BB0895823059F017
:1007B00080FF02C03E9A01C03E98869580FF02C02D
:1007C0003F9A01C03F98662311F03D9A01C03D98C1
:1007D00040FF02C0309A01C03098842F869580FF78
:1007E00002C0319A01C03198842F8695869580FF8A
:1007F00002C0329A01C03298379A089597B1907E1C
:1008000097B997B1982B97B90895369A0895349B64
:10081000FECF349A24B135B1C901089508950895E1
:10082000A0E0B0E0BC01CD012FEF30E040E050E0AF
:100830000E948E042FEF33E040E050E00E94AD04B0
:100840002093610082E690E00E9449000895809123
:100850007B00882349F482E063E041E00E94FF02CC
:1008600082E064E040E008C082E063E040E00E9493
:10087000FF0282E064E041E00E94FF02089580915F
:100880007B0091E0892780937B000E9427040895D4
:1008900081E080937A0082E690E00E9449000E9405
:1008A0002704089510927A0080E00E94A500089520
:1008B00081E060E047E00E94D60382E690E00E947B
:1008C000490080E00E94A50082E063E041E00E94D0
:1008D000710282E064E041E00E9471028FB780689B
:1008E0008FBF80E060E048E454E00E94E10181E0D5
:1008F00060E042E554E00E94E10182E062E04FE303
:1009000054E00E94E10180917A008130E1F70E9479
:1009100005040E9407040E941004F5CF629FD001D5
:10092000739FF001829FE00DF11D649FE00DF11DAA
:10093000929FF00D839FF00D749FF00D659FF00D59
:100940009927729FB00DE11DF91F639FB00DE11D46
:10095000F91FBD01CF0111240895A1E21A2EAA1B8F
:10096000BB1BFD010DC0AA1FBB1FEE1FFF1FA2175F
:10097000B307E407F50720F0A21BB30BE40BF50B5C
:10098000661F771F881F991F1A9469F760957095E5
:10099000809590959B01AC01BD01CF010895F8941D
:0209A000FFCF87
:0609A20000801F60000050
:00000001FF
