:100000000C942A000C943F000C943F000C943F0089
:100010000C943F000C943F000C943F000C943F0064
:100020000C943F000C943F000C943F000C943F0054
:100030000C943F000C943F000C943F000C943F0044
:100040000C943F000C943F000C943F000C943F0034
:100050000C943F0011241FBECFE5D4E0DEBFCDBF1E
:1000600010E0A0E6B0E0E6EEF4E002C005900D92EC
:10007000A037B107D9F70E946E020C9471020C945C
:100080000000813009F1813030F08230B1F18330ED
:1000900009F064C04BC0442359F02AB381E090E0DA
:1000A00002C0880F991F6A95E2F7282B2ABB089592
:1000B0002AB381E090E002C0880F991F6A95E2F7A9
:1000C000809582238ABB0895442359F027B381E0A9
:1000D00090E002C0880F991F6A95E2F7282B27BB92
:1000E000089527B381E090E002C0880F991F6A95B8
:1000F000E2F78095822387BB0895442359F024B307
:1001000081E090E002C0880F991F6A95E2F7282BE2
:1001100024BB089524B381E090E002C0880F991FAA
:100120006A95E2F78095822384BB0895442359F0B1
:1001300021B381E090E002C0880F991F6A95E2F731
:10014000282B21BB089521B381E090E002C0880FE5
:10015000991F6A95E2F78095822381BB08958130CB
:1001600051F0813030F0823041F0833079F080E01E
:10017000089589B303C086B301C083B390E002C081
:10018000959587956A95E2F78170089580B390E020
:1001900002C0959587956A95E2F781700895813040
:1001A00009F1813030F08230B1F1833009F064C060
:1001B0004BC0442359F02BB381E090E002C0880F7C
:1001C000991F6A95E2F7282B2BBB08952BB381E08A
:1001D00090E002C0880F991F6A95E2F7809582230C
:1001E0008BBB0895442359F028B381E090E002C00E
:1001F000880F991F6A95E2F7282B28BB089528B32A
:1002000081E090E002C0880F991F6A95E2F780951F
:10021000822388BB0895442359F025B381E090E000
:1002200002C0880F991F6A95E2F7282B25BB089515
:1002300025B381E090E002C0880F991F6A95E2F72C
:100240008095822385BB0895442359F022B381E031
:1002500090E002C0880F991F6A95E2F7282B22BB15
:10026000089522B381E090E002C0880F991F6A953B
:10027000E2F78095822382BB0895813091F081302E
:1002800028F08230C9F0833061F521C02BB381E0C2
:1002900090E002C0880F991F6A95E2F728272BBBD0
:1002A000089528B381E090E002C0880F991F6A95F5
:1002B000E2F7282728BB089525B381E090E002C02B
:1002C000880F991F6A95E2F7282725BB089522B366
:1002D00081E090E002C0880F991F6A95E2F7282715
:1002E00022BB0895813049F0813028F0823039F006
:1002F000833041F406C06ABB089567BB089564BBB0
:10030000089561BB0895813051F0813030F0823022
:1003100041F0833041F080E0089589B3089586B3B9
:10032000089583B3089580B30895813049F08130F2
:1003300028F0823039F0833041F406C06BBB089559
:1003400068BB089565BB089562BB0895AF92BF92E4
:10035000CF92DF92EF92FF920F931F93DF93CF9391
:10036000CDB7DEB728970FB6F894DEBF0FBECDBF6E
:10037000198281E08A8382E08B8383E08C8384E02E
:100380008D8385E08E8386E08F8387E0888745E0D4
:10039000E42EF12CEC0EFD1E39E0C32ED12CCC0E38
:1003A000DD1EF70111917F0182E0612F41E00E9483
:1003B000410082E0612F41E00E94CF00EC14FD0477
:1003C00081F77E010894E11CF11C25E0C22ED12C9E
:1003D000CC0EDD1EF70111917F0181E0612F40E01D
:1003E0000E94410081E0612F41E00E94CF00EC14A7
:1003F000FD0481F7EE24FF2495E0A92EB12CAC0E6C
:10040000BD1EF501EE0DFF1DD08082E06D2D40E098
:100410000E94CF00198181E0612F0E94AF008823E4
:1004200019F4E0E0F0E01DC01A8181E0612F0E9424
:10043000AF00882319F4E1E0F0E013C01B8181E0F4
:10044000612F0E94AF00882319F4E2E0F0E009C0B8
:1004500081E063E00E94AF00882301F5E3E0F0E073
:1004600013E0EE0FFF1FEE0FFF1FEE0DFF1DE05A12
:10047000FF4F008181E0612F0E94AF008823D1F3FC
:1004800080E090E000000196FDE780309F07D1F703
:1004900082E06D2D41E00E94CF000EC082E06D2D04
:1004A00041E00E94CF000894E11CF11C24E0E21618
:1004B000F10409F0A6CF0FEF802F28960FB6F8941D
:1004C000DEBF0FBECDBFCF91DF911F910F91FF9087
:1004D000EF90DF90CF90BF90AF9008950E94A6015B
:0604E000FDCFF894FFCFF0
:1004E6003738392F3435362A3132332D63303D2BA8
:00000001FF
