:100000000C94A7000C94BC000C94BC000C94BC0095
:100010000C94BC000C94BC000C94BC000C94BC0070
:100020000C94BC000C94BC000C94BC000C94BC0060
:100030000C94BC000C94BC000C94BC000C94BC0050
:100040000C94BC000C94BC000C94BC000C94BC0040
:100050000C94BC0000407A10F35A00A0724E1809AC
:100060000010A5D4E80000E87648170000E40B541F
:10007000020000CA9A3B000000E1F50500008096EE
:100080009800000040420F000000A0860100000020
:10009000102700000000E8030000000064000000DA
:1000A00000000A00000000000100000000002C76A3
:1000B000D888DC674F0823DFC1DFAE59E1B1B796BE
:1000C000E5E3E453C63AE651997696E8E6C284261B
:1000D000EB898C9B62ED407C6FFCEFBC9C9F40F2F7
:1000E000BAA56FA5F490055A2AF75C936B6CF96773
:1000F0006DC11BFCE0E40D47FEF520E6B500D0ED38
:10010000902E0300943577050080841E080000209F
:100110004E0A000000C80C333333330F986E12833D
:100120001141EF8D2114893BE65516CFFEE6DB1811
:10013000D1844B381BF77C1D901DA4BBE4242032D6
:1001400084725E228100C9F124ECA1E53D271124CF
:100150001FBECFE5D4E0DEBFCDBF10E0A0E6B0E02B
:10016000EAEFF6E102C005900D92A038B107D9F789
:100170000E9462080C947B0B0C940000813009F102
:10018000813030F08230B1F1833009F064C04BC06F
:10019000442359F02AB381E090E002C0880F991FF0
:1001A0006A95E2F7282B2ABB08952AB381E090E0F4
:1001B00002C0880F991F6A95E2F7809582238ABB57
:1001C0000895442359F027B381E090E002C0880FDE
:1001D000991F6A95E2F7282B27BB089527B381E082
:1001E00090E002C0880F991F6A95E2F780958223FC
:1001F00087BB0895442359F024B381E090E002C006
:10020000880F991F6A95E2F7282B24BB089524B321
:1002100081E090E002C0880F991F6A95E2F780950F
:10022000822384BB0895442359F021B381E090E0F8
:1002300002C0880F991F6A95E2F7282B21BB089509
:1002400021B381E090E002C0880F991F6A95E2F720
:100250008095822381BB0895813051F0813030F048
:10026000823041F0833079F080E0089589B303C093
:1002700086B301C083B390E002C0959587956A95D7
:10028000E2F78170089580B390E002C0959587955C
:100290006A95E2F781700895813009F1813030F07C
:1002A0008230B1F1833009F064C04BC0442359F06F
:1002B0002BB381E090E002C0880F991F6A95E2F7A6
:1002C000282B2BBB08952BB381E090E002C0880F50
:1002D000991F6A95E2F7809582238BBB089544238A
:1002E00059F028B381E090E002C0880F991F6A9509
:1002F000E2F7282B28BB089528B381E090E002C0E4
:10030000880F991F6A95E2F78095822388BB08952C
:10031000442359F025B381E090E002C0880F991F73
:100320006A95E2F7282B25BB089525B381E090E07C
:1003300002C0880F991F6A95E2F78095822385BBDA
:100340000895442359F022B381E090E002C0880F61
:10035000991F6A95E2F7282B22BB089522B381E00A
:1003600090E002C0880F991F6A95E2F7809582237A
:1003700082BB0895813091F0813028F08230C9F03D
:10038000833061F521C02BB381E090E002C0880F7B
:10039000991F6A95E2F728272BBB089528B381E0BF
:1003A00090E002C0880F991F6A95E2F7282728BBC2
:1003B000089525B381E090E002C0880F991F6A95E7
:1003C000E2F7282725BB089522B381E090E002C020
:1003D000880F991F6A95E2F7282722BB089581307C
:1003E00049F0813028F0823039F0833041F406C082
:1003F0006ABB089567BB089564BB089561BB089507
:10040000813051F0813030F0823041F0833041F062
:1004100080E0089589B3089586B3089583B308955D
:1004200080B30895813049F0813028F0823039F06E
:10043000833041F406C06BBB089568BB089565BB6B
:10044000089562BB08951F93813059F0813030F0D8
:10045000823051F0833059F010E80BC0162F10583D
:1004600008C0162F105405C0162F1C5602C0162F98
:100470001C5280E061E040E00E944C01000080E0FE
:1004800062E00E94BA010000412F441F4427441F2C
:1004900080E066E00E944C01412F429546954695CA
:1004A000417080E065E00E944C01412F42954695E5
:1004B000417080E064E00E944C01412F4295417000
:1004C00080E063E00E944C01000080E062E00E9456
:1004D000BA0180E090E0000001968A309105D9F7DA
:1004E00080E062E00E94BA010000412F46954695E7
:1004F0004695417080E066E00E944C01412F469590
:100500004695417080E065E00E944C01412F469580
:10051000417080E064E00E944C01117080E063E073
:10052000412F0E944C01000080E062E00E94BA016D
:1005300080E090E00000019682339105D9F71F9189
:10054000089580E061E040E00E944C01000080E0FE
:1005500062E00E94BA01000080E066E040E00E9494
:100560004C0180E065E040E00E944C0180E064E0E6
:1005700040E00E944C0180E063E040E00E944C01BA
:10058000000080E062E00E94BA0180E090E000009C
:1005900001968A309105D9F780E062E00E94BA01A5
:1005A000000080E066E040E00E944C0180E065E0F1
:1005B00040E00E944C0180E064E041E00E944C0178
:1005C00080E063E040E00E944C01000080E062E0D7
:1005D0000E94BA0180E090E0000001962CE0803893
:1005E0009207D1F7089580E061E040E00E944C015D
:1005F000000080E062E00E94BA01000080E066E056
:1006000040E00E944C0180E065E040E00E944C0127
:1006100080E064E040E00E944C0180E063E040E064
:100620000E944C01000080E062E00E94BA0180E07C
:1006300090E0000001968A309105D9F780E062E0F1
:100640000E94BA01000080E066E040E00E944C0198
:1006500080E065E040E00E944C0180E064E040E022
:100660000E944C0180E063E041E00E944C010000E8
:1006700080E062E00E94BA0180E090E00000019614
:100680002CE080389207D1F7089580E061E040E0E7
:100690000E944C01000080E062E00E94BA0100006C
:1006A00080E066E040E00E944C0180E065E040E0D0
:1006B0000E944C0180E064E040E00E944C0180E038
:1006C00063E040E00E944C01000080E062E00E9494
:1006D000BA0180E090E0000001968A309105D9F7D8
:1006E00080E062E00E94BA01000080E066E041E044
:1006F0000E944C0180E065E040E00E944C0180E0F7
:1007000064E040E00E944C0180E063E040E00E9431
:100710004C01000080E062E00E94BA01089580E090
:1007200061E040E00E944C01000080E062E00E9435
:10073000BA01000080E066E040E00E944C0180E0E9
:1007400065E040E00E944C0180E064E040E00E94EF
:100750004C0180E063E040E00E944C01000080E03A
:1007600062E00E94BA0180E090E0000001968A30C9
:100770009105D9F780E062E00E94BA01000080E0B4
:1007800066E041E00E944C0180E065E041E00E94AB
:100790004C0180E064E040E00E944C0180E063E0B6
:1007A00040E00E944C01000080E062E00E94BA013B
:1007B0000895EF92FF921F93CF93DF937B01182F41
:1007C0001770110F110F110F105C80E061E040E015
:1007D0000E944C01000080E062E00E94BA0100002B
:1007E00080E066E040E00E944C0180E065E041E08E
:1007F0000E944C01412F42954695417080E064E093
:100800000E944C01412F4295417080E063E00E94BC
:100810004C01000080E062E00E94BA0180E090E0BC
:10082000000001968A309105D9F780E062E00E94CD
:10083000BA010000412F469546954695417080E0EB
:1008400066E00E944C01412F46954695417080E03C
:1008500065E00E944C01412F4695417080E064E0C4
:100860000E944C01117080E063E0412F0E944C0116
:10087000000080E062E00E94BA01C0E0D0E0F70131
:10088000EC0FFD1F108180E061E041E00E944C010F
:10089000000080E062E00E94BA010000412F441F86
:1008A0004427441F80E066E00E944C01412F42959E
:1008B00046954695417080E065E00E944C01412FCD
:1008C00042954695417080E064E00E944C01412FC2
:1008D0004295417080E063E00E944C01000080E09E
:1008E00062E00E94BA0180E090E0000001968A3048
:1008F0009105D9F780E062E00E94BA010000412F23
:10090000469546954695417080E066E00E944C0110
:10091000412F46954695417080E065E00E944C016C
:10092000412F4695417080E064E00E944C011170B7
:1009300080E063E0412F0E944C01000080E062E013
:100940000E94BA012196C830D10509F098CFDF91F5
:10095000CF911F91FF90EF9008951F93CF93DF9356
:10096000EC0167C080E061E041E00E944C010000C2
:1009700080E062E00E94BA010000412F441F44273A
:10098000441F80E066E00E944C01412F429546954D
:100990004695417080E065E00E944C01412F4295F0
:1009A0004695417080E064E00E944C01412F4295E1
:1009B000417080E063E00E944C01000080E062E052
:1009C0000E94BA0180E090E0000001968A30910513
:1009D000D9F780E062E00E94BA010000412F4695FD
:1009E00046954695417080E066E00E944C01412F9B
:1009F00046954695417080E065E00E944C01412F8C
:100A00004695417080E064E00E944C01117080E0E6
:100A100063E0412F0E944C01000080E062E00E94F0
:100A2000BA0180E090E00000019682339105D9F789
:100A300021961881112309F095CFDF91CF911F9155
:100A400008951F93182F80E061E041E00E944C015F
:100A5000000080E062E00E94BA010000412F441FC4
:100A60004427441F80E066E00E944C01412F4295DC
:100A700046954695417080E065E00E944C01412F0B
:100A800042954695417080E064E00E944C01412F00
:100A90004295417080E063E00E944C01000080E0DC
:100AA00062E00E94BA0180E090E0000001968A3086
:100AB0009105D9F780E062E00E94BA010000412F61
:100AC000469546954695417080E066E00E944C014F
:100AD000412F46954695417080E065E00E944C01AB
:100AE000412F4695417080E064E00E944C011170F6
:100AF00080E063E0412F0E944C01000080E062E052
:100B00000E94BA0180E090E00000019682339105D6
:100B1000D9F71F910895EF92FF920F931F93DF93E0
:100B2000CF93CDB7DEB760970FB6F894DEBF0FBE98
:100B3000CDBF46E022E07E010894E11CF11C870154
:100B40000E94A408C7010E94AD0460960FB6F894F5
:100B5000DEBF0FBECDBFCF91DF911F910F91FF90F0
:100B6000EF9008950F931F93DF93CF93CDB7DEB728
:100B70002B970FB6F894DEBF0FBECDBFDC01CB01C3
:100B80008E010F5F1F4FB8014AE050E00E94C50878
:100B9000C8010E94AD042B960FB6F894DEBF0FBEBD
:100BA000CDBFCF91DF911F910F91089580E06EE747
:100BB0000E94EF0180E090E0A0E0B0E0000001962C
:100BC000A11DB11D803828E3920721E0A20720E093
:100BD000B207A1F780E061E040E00E944C01000014
:100BE00080E062E00E94BA01000080E066E040E040
:100BF0000E944C0180E065E040E00E944C0180E0F2
:100C000064E041E00E944C0180E063E041E00E942A
:100C10004C01000080E062E00E94BA0180E090E0B8
:100C2000000001968A309105D9F780E062E00E94C9
:100C3000BA01000080E066E040E00E944C0180E0E4
:100C400065E040E00E944C0180E064E041E00E94E9
:100C50004C0180E063E041E00E944C01000080E034
:100C600062E00E94BA0180E061E040E00E944C0135
:100C7000000080E062E00E94BA01000080E066E0CF
:100C800040E00E944C0180E065E040E00E944C01A1
:100C900080E064E041E00E944C0180E063E041E0DC
:100CA0000E944C01000080E062E00E94BA0180E0F6
:100CB00090E0000001968A309105D9F780E062E06B
:100CC0000E94BA01000080E066E040E00E944C0112
:100CD00080E065E040E00E944C0180E064E041E09B
:100CE0000E944C0180E063E040E00E944C01000063
:100CF00080E062E00E94BA0180E061E040E00E9492
:100D00004C01000080E062E00E94BA01000080E037
:100D100066E040E00E944C0180E065E040E00E9417
:100D20004C0180E064E041E00E944C0180E063E01F
:100D300040E00E944C01000080E062E00E94BA01A5
:100D400080E090E0000001968A309105D9F780E0BC
:100D500062E00E94BA01000080E066E041E00E948B
:100D60004C0180E065E040E00E944C0180E064E0DE
:100D700040E00E944C0180E063E040E00E944C01B2
:100D8000000080E062E00E94BA0180E061E040E0A3
:100D90000E944C01000080E062E00E94BA01000065
:100DA00080E066E040E00E944C0180E065E040E0C9
:100DB0000E944C0180E064E040E00E944C0180E031
:100DC00063E040E00E944C01000080E062E00E948D
:100DD000BA0180E090E0000001968A309105D9F7D1
:100DE00080E062E00E94BA01000080E066E041E03D
:100DF0000E944C0180E065E041E00E944C0180E0EF
:100E000064E040E00E944C0180E063E040E00E942A
:100E10004C01000080E062E00E94BA0180E061E0E5
:100E200040E00E944C01000080E062E00E94BA01B4
:100E3000000080E066E040E00E944C0180E065E058
:100E400040E00E944C0180E064E040E00E944C01E0
:100E500080E063E040E00E944C01000080E062E03E
:100E60000E94BA0180E090E0000001968A3091056E
:100E7000D9F780E062E00E94BA01000080E066E0FD
:100E800040E00E944C0180E065E040E00E944C019F
:100E900080E064E040E00E944C0180E063E041E0DB
:100EA0000E944C01000080E062E00E94BA0180E0F4
:100EB00090E0000001962CE080389207D1F780E0A6
:100EC00061E040E00E944C01000080E062E00E948E
:100ED000BA01000080E066E040E00E944C0180E042
:100EE00065E040E00E944C0180E064E040E00E9448
:100EF0004C0180E063E040E00E944C01000080E093
:100F000062E00E94BA0180E090E0000001968A3021
:100F10009105D9F780E062E00E94BA01000080E00C
:100F200066E040E00E944C0180E065E041E00E9404
:100F30004C0180E064E041E00E944C0180E063E00D
:100F400040E00E944C01000080E062E00E94BA0193
:100F50000895FF920F931F93CF93DF93FF24FA948A
:100F6000C0E0D0E0CE018C5F082F83E0602F40E02E
:100F70000E944C0183E060E00E942C01882311F460
:100F800010E017C083E061E00E942C01882311F477
:100F900011E00FC083E062E00E942C01882311F46D
:100FA00012E007C083E063E00E942C01882341F532
:100FB00013E080E090E0A0E0B0E000000196A11D09
:100FC000B11D803828E3920721E0A20720E0B20794
:100FD000A1F783E0612F0E942C01882359F4E12FAF
:100FE000F0E0EE0FFF1FEE0FFF1FEC0FFD1FE059AB
:100FF000FF4FF08083E0612F0E942C018823D1F302
:1010000083E0602F41E00E944C012196C430D1055D
:1010100009F0A8CF8F2DDF91CF911F910F91FF90F5
:10102000089583E060E040E00E94BE0083E061E05C
:1010300040E00E94BE0083E062E040E00E94BE000B
:1010400083E063E040E00E94BE0083E060E041E0B6
:101050000E944C0183E061E041E00E944C0183E08A
:1010600062E041E00E944C0183E063E041E00E94C5
:101070004C0183E064E041E00E94BE0083E065E053
:1010800041E00E94BE0083E066E041E00E94BE00B5
:1010900083E067E041E00E94BE0083E064E041E05D
:1010A0000E944C0183E065E041E00E944C0183E036
:1010B00066E041E00E944C0183E067E041E00E946D
:1010C0004C0108950F931F930E94D6050E941108AA
:1010D0000E94F30210E00E94A907082F8F3FD9F366
:1010E0001F5F143608F010E00E94F30280E060E019
:1010F0000E94230280E690E00E94AD0480E069E057
:101100000E942302802F0E94210581E060E00E945E
:10111000230289E690E00E94AD04612F70E080E038
:1011200090E00E94B20580E090E0A0E0B0E0000016
:101130000196A11DB11D803021E7920722E0A20790
:1011400020E0B207A1F7C7CFEF92FF920F931F9352
:10115000F22FF02E47FD02C0E4E001C0E4E1242FAD
:10116000332727FD309537FF03C0309521953F4F3A
:101170004F2D512F0F2FEE2E0E94E6088F2D912F0D
:101180001F910F91FF90EF900895FB019F01E8944C
:101190004230C4F04532B4F44A3029F497FB1EF4CF
:1011A000909581959F4F642F77270E94300B805D2B
:1011B0008A330CF0895D8193CB010097A1F716F477
:1011C0005DE251931082C9010C94200BA9E0B0E0BC
:1011D000ECEEF8E00C94480B6A01122FA02EBE2C06
:1011E0002BE3201718F42CE3922E02C0902E939438
:1011F000AE014F5F5F4F27E0092D0E94480ABC01F6
:101200008981E82EFF24C70189709070019711F43D
:10121000ADE209C0B1FE02C0ABE205C0B0FC02C045
:10122000A0E001C0A0E2E3FE3BC0AA2311F423E04A
:1012300001C024E0211710F020E002C0121B212F72
:10124000EB2CB4FE02C0322F0AC0F601322F80E22E
:1012500002C0819331503323E1F7C20ED11CAA237F
:1012600019F0F601A1936F01F6013196E2FE05C077
:101270009EE4D6019C9381E404C09EE6D6019C9333
:1012800081E611968C9391833296DF01832F90E251
:1012900002C09D9381508823E1F7E30FF11D40C008
:1012A000E2FE42C0AA2311F423E001C024E021178A
:1012B00010F020E002C0121B212FEB2CB4FE02C064
:1012C000922F0AC0F601922F80E202C081939150C2
:1012D0009923E1F7C20ED11CAA2319F0F601A193BC
:1012E0006F01F6013196E2FE08C089E4D6018C93C5
:1012F0008EE411968C9386E407C089E6D6018C9320
:101300008EE611968C9386E681833296DF01892FD3
:1013100020E202C02D9381508823E1F7E90FF11DEF
:1013200010822EEF3FEFAFC0161617061CF041E0FB
:1013300050E003C0AB014F5F5F4FAA2019F480E07B
:1013400090E003C08A2D90E0019620E030E0AA23CF
:1013500011F021E030E0240F351F280F391F812FB5
:1013600090E02817390714F020E002C0121B212F4B
:101370004B2D50E0CA0180719070B4FC0DC0B3FCDD
:101380000BC0F601322F40E202C0419331503323AB
:10139000E1F7C20ED11C01C0322FAA2319F0F601C9
:1013A000A1936F01892B11F0132F0AC0F601132F9F
:1013B00080E302C0819311501123E1F7C30ED11CC9
:1013C000092D060FBA8090E1892E912C8E209F2046
:1013D000E4FE04C0F1E3BF1609F40150101614F046
:1013E00001E003C0093008F008E09B0177FF02C06C
:1013F00020E030E0CB010196821B930BFE01319679
:10140000E80FF91F8EE2F82E3B01601A71088A2D51
:1014100090E044275527481B590B8FEF2F3F380783
:1014200019F4D601FD926D01621773072CF0621654
:10143000730614F4808101C080E32150304031965E
:101440002417350724F0D6018D936D01E6CF2617BA
:10145000370749F4B5E3BB1528F0BB1621F4811416
:10146000910409F481E3F6018193D601812F90E282
:1014700002C09C93815011968823D9F7E10FF11D8A
:10148000108220E030E0C9012996EEE00C94640B54
:10149000283008F027E03327DA01990F311D87FD46
:1014A000916000966105710539F432602E5F3D93BD
:1014B00030E32A95E1F708959F3F30F080387105B9
:1014C000610509F03C5F3C5F3D93913008F0806816
:1014D000911DDF93CF931F930F93FF92EF92192FDC
:1014E000987F9695E92F96959695E90FFF27E255F7
:1014F000FF4F99273327EE24FF24A701E70105902A
:101500000894079428F4360FE71EF81E491F511D52
:10151000660F771F881F991F0694A1F705900794FF
:1015200028F4E70EF81E491F561FC11D770F881FAC
:10153000991F661F0694A1F70590079428F4F80EEA
:10154000491F561FC71FD11D880F991F661F771F80
:101550000694A1F70590079420F4490F561FC71F62
:10156000D81F990F661F771F881F0694A9F78491CB
:101570001095177041F0D695C79557954795F794F4
:10158000E7941A95C1F7E4E5F0E068941590159199
:1015900035916591959105907FE27395E118F10A77
:1015A000430B560BC90BD009C0F7E10CF11E431FCA
:1015B000561FC91FD01D7EF4703311F48A95E6CFF3
:1015C000E894015030F0080F0AF40027021708F4DD
:1015D000202F2395022F7A3328F079E37D932A95E3
:1015E000E9F710C07D932A9589F60694979567953B
:1015F000379517951794E118F10A430B560BC90B51
:10160000D00998F023957E9173957A3308F070E3B2
:101610007C932013B8F77E9170617D9330F08395B1
:1016200071E37D9370E32A95E1F71124EF90FF9029
:101630000F911F91CF91DF91992787FD9095089584
:10164000DC01FC01672F71917723E1F7329704C029
:101650007C916D9370836291AE17BF07C8F30895B4
:10166000AA1BBB1B51E107C0AA1FBB1FA617B707C8
:1016700010F0A61BB70B881F991F5A95A9F78095E4
:101680009095BC01CD0108952F923F924F925F92A9
:101690006F927F928F929F92AF92BF92CF92DF9282
:1016A000EF92FF920F931F93CF93DF93CDB7DEB7E7
:1016B000CA1BDB0B0FB6F894DEBF0FBECDBF09947B
:1016C0002A88398848885F846E847D848C849B84D2
:1016D000AA84B984C884DF80EE80FD800C811B81E0
:1016E000AA81B981CE0FD11D0FB6F894DEBF0FBE0F
:0A16F000CDBFED010895F894FFCF7F
:1016FA00507265737365643A00436F756E743A008D
:10170A003738392F3435362A3132332D3F303D2B95
:00000001FF
