:100000000C942A000C9434000C9434000C943400AA
:100010000C9434000C9434000C9434000C94340090
:100020000C9434000C9434000C9434000C94340080
:100030000C9434000C9434000C9434000C94340070
:100040000C9434000C9434000C9434000C94340060
:100050000C94340011241FBECFE5D4E0DEBFCDBF29
:100060000E949B010C949C010C940000813009F1CA
:10007000813030F08230B1F1833009F064C04BC080
:10008000442359F02AB381E090E002C0880F991F01
:100090006A95E2F7282B2ABB08952AB381E090E005
:1000A00002C0880F991F6A95E2F7809582238ABB68
:1000B0000895442359F027B381E090E002C0880FEF
:1000C000991F6A95E2F7282B27BB089527B381E093
:1000D00090E002C0880F991F6A95E2F7809582230D
:1000E00087BB0895442359F024B381E090E002C017
:1000F000880F991F6A95E2F7282B24BB089524B333
:1001000081E090E002C0880F991F6A95E2F7809520
:10011000822384BB0895442359F021B381E090E009
:1001200002C0880F991F6A95E2F7282B21BB08951A
:1001300021B381E090E002C0880F991F6A95E2F731
:100140008095822381BB0895813051F0813030F059
:10015000823041F0833079F080E0089589B303C0A4
:1001600086B301C083B390E002C0959587956A95E8
:10017000E2F78170089580B390E002C0959587956D
:100180006A95E2F781700895813009F1813030F08D
:100190008230B1F1833009F064C04BC0442359F080
:1001A0002BB381E090E002C0880F991F6A95E2F7B7
:1001B000282B2BBB08952BB381E090E002C0880F61
:1001C000991F6A95E2F7809582238BBB089544239B
:1001D00059F028B381E090E002C0880F991F6A951A
:1001E000E2F7282B28BB089528B381E090E002C0F5
:1001F000880F991F6A95E2F78095822388BB08953E
:10020000442359F025B381E090E002C0880F991F84
:100210006A95E2F7282B25BB089525B381E090E08D
:1002200002C0880F991F6A95E2F78095822385BBEB
:100230000895442359F022B381E090E002C0880F72
:10024000991F6A95E2F7282B22BB089522B381E01B
:1002500090E002C0880F991F6A95E2F7809582238B
:1002600082BB0895813091F0813028F08230C9F04E
:10027000833061F521C02BB381E090E002C0880F8C
:10028000991F6A95E2F728272BBB089528B381E0D0
:1002900090E002C0880F991F6A95E2F7282728BBD3
:1002A000089525B381E090E002C0880F991F6A95F8
:1002B000E2F7282725BB089522B381E090E002C031
:1002C000880F991F6A95E2F7282722BB089581308D
:1002D00049F0813028F0823039F0833041F406C093
:1002E0006ABB089567BB089564BB089561BB089518
:1002F000813051F0813030F0823041F0833041F074
:1003000080E0089589B3089586B3089583B308956E
:1003100080B30895813049F0813028F0823039F07F
:10032000833041F406C06BBB089568BB089565BB7C
:0C033000089562BB0895FFCFF894FFCF42
:00000001FF
